:020000040800F2
:1000000060080020B1010008F3290008B1290008A8
:10001000F1290008651A00083B30000800000000C4
:100020000000000000000000000000006B2D000830
:10003000411D000800000000692D00086D2D00081A
:10004000CB010008CB010008CB010008CB01000860
:10005000CB010008CB010008CB010008CB01000850
:10006000CB010008CB010008CB010008CB01000840
:10007000CB010008CB010008CB010008CB01000830
:10008000CB010008CB010008CB010008CB01000820
:10009000CB010008CB010008CB010008CB01000810
:1000A000CB010008CB010008CB010008CB01000800
:1000B000CB010008CB010008CB010008CB010008F0
:1000C000CB010008CB010008CB010008CB010008E0
:1000D000CB01000837300008CB010008CB01000835
:1000E000CB010008CB010008CB01000800F002F8AA
:1000F00000F04FF80AA090E8000C82448344AAF173
:100100000107DA4501D100F044F8AFF2090EBAE870
:100110000F0013F0010F18BFFB1A43F0010318473B
:10012000AC390000CC390000103A24BF78C878C13F
:10013000FAD8520724BF30C830C144BF04680C60ED
:10014000704700000023002400250026103A28BF35
:1001500078C1FBD8520728BF30C148BF0B60704739
:10016000662903F0C483002070471FB59DE8030093
:1001700000F082FE00F01AFB04000020002103F0D2
:10018000BDF8E06000F02AFC1FBD10B500F08FFC48
:1001900010BD00F0F7FC1146FFF7E7FF03F002F88F
:1001A00000F0FCFD03B4FFF7F0FF03BC00F0F6FF26
:1001B0000948804709480047FEE7FEE7FEE7FEE7FB
:1001C000FEE7FEE7FEE7FEE7FEE7FEE70448054937
:1001D000054A064B70470000CF2D0008ED000008CF
:1001E00060020020600800206004002060040020FD
:1001F0000FB4044910B503AA029800F0C5FA10BC68
:100200005DF814FB580100202DE9F0474FF0000A7B
:1002100089460446C0F820A02046E16888470028A7
:1002200076D0252806D0D4E901219047206A401CC9
:100230002062F1E7E168204600258847C4F81CA049
:1002400006460027C4F818A02A2E09D0304602F02E
:1002500019FF38B304EB8708303EC8F8186019E07E
:1002600059F8041B204604EB87029161E168884736
:10027000012F064618D1E069002820DA25F0200574
:100280001DE0D8F8180000EB800006EB4000303885
:10029000C8F818002046E1688847064602F0F2FEDA
:1002A0000028EED1012F0AD02E2E08D12046E16879
:1002B00088477F1C0646022F45F02005C4DBA06955
:1002C000002803DA404245F00105A061E80701D0AB
:1002D00025F01005B6B1A6F14100192802D8203644
:1002E00045F400654A463146204625604D46FFF7F5
:1002F00037FF58B1012806D0ED1D25F0070000F1A9
:10030000080989E704E005F1040985E730468AE732
:10031000206ABDE8F0874FF0000200B5134694460E
:100320009646203922BFA0E80C50A0E80C50B1F14D
:100330002001BFF4F7AF090728BFA0E80C5048BF61
:100340000CC05DF804EB890028BF40F8042B08BFFF
:10035000704748BF20F8022B11F0804F18BF00F8FB
:10036000012B704770477047704770472DE9FF4F6A
:100370000C461E464FF0FF378BB0D2E90001DDF886
:1003800060800A908A46C1F30A5505B93D460021AE
:1003900008464FF00000BAF1000F00F4400005DA03
:1003A00000EB80004FF4400101EA50004FEA905901
:1003B000B9F1010F00DDB9460A9850EA4A000ED0A3
:1003C00044F61050A5F2FF3545432F14B8F1000F45
:1003D0001ED07542291E1EDDC9F100021CE0B8F1D5
:1003E000010F4FF0000001D0302103E0F24305E09F
:1003F0002154401CB042FBDB304600220021215436
:100400000B99C1F80880C1E900200FB0BDE8F08F5A
:10041000BD1B6D1CDEE74A4600DA694206A800F003
:1004200067FA06AB93E8070003AB83E80700504682
:100430000A9900F04FFF8DE80700A0F500501F3823
:1004400000900398002D0ADD42F21F014A4608443D
:10045000002303A90390684601F0B8F909E0A0F56C
:1004600000504A461F38002303A90390684601F054
:10047000C2F98DE807000004000C03D04FF0FF30F4
:10048000410800E01046B8F1000F03D000220092AE
:1004900015461EE0751E05D400F08CF93032625509
:1004A0006D1EF9D5B3460122084302D000227F1CFD
:1004B00004E02078302801D100227F1E002A09970D
:1004C00084D01DE0112D07DA00F074F93032625546
:1004D0006D1C50EA0102F5D1084302D00098C8B162
:1004E0000EE00021681E05E0235C625C6354225428
:1004F000401E491C8142F7DBAB46A81B401E0990F9
:10050000002004F80B000B98099AC0F80880C0E995
:10051000002B7AE711264FF0000857E72DE9F04F3E
:1005200088460446D21D22F0070191B0D1E90001AE
:10053000CDE90A0102F082FD02460B98C00F01D0FE
:100540002D2007E02068810701D52B2002E0202123
:1005500001EAC000032A099001D0072A05DB0346FF
:100560004146204600F084F90BE12078800601D551
:10057000E06900E00620B8F1650F814606D0B8F1C9
:10058000660F18D0B8F1670F70D131E00020B9F1D3
:10059000110F009001DB112301E009F101030AAA08
:1005A00001A90CA8FFF7E2FEDDE90C70002609F1B5
:1005B0000105834647E001204B4600904FF000477D
:1005C0000AAA01A90CA8FFF7D1FEDDE90DB00C992C
:1005D0005D46002610B909F101000D18B9EB0500C0
:1005E00003D4C0F1FF3609F10105A5EB09002BE0AA
:1005F000B9F1010F01DA4FF001090020B9F1110F33
:100600000090484601DD112300E003460AAA01A933
:100610000CA8FFF7ABFEDDE90C704D4600268346C3
:10062000207800070AD4AB4500DA5D4601A8012D09
:1006300004DD411911F8011C302907D04F4502DAB9
:1006400017F1040F04DA012082460FE06D1EEEE779
:10065000002F02DCED1B3E4403E0781CA84200DDC5
:100660007D1CB81B00F1010A4FF0004720780007FD
:1006700003D4AA4501DB4FF0FF3A0021B7F1004F48
:100680000DF143088DF8431024D002202B23002FB6
:1006900001DA7F422D230A21021EA0F1010000DCB5
:1006A0005FB197FBF1FC97FBF1F201FB1C7C174655
:1006B0000CF1300C08F801CDEEE7A8F10100037051
:1006C0002188090501D5452100E06521A0F1010837
:1006D00000F8011C09980FA9A1EB0807FF1D00B144
:1006E0000120411901EBEA70A1693844081A401E43
:1006F000A0612078C00602D42046AFF3008009989C
:1007000028B1D4E901219047206A401C206220785A
:10071000C00622D52046AFF300801EE0002E04DB89
:10072000B34502DD01A8805D00E03020D4E901215D
:100730009047206A401C2062761CAAF101005FEA03
:10074000000A0AD100F032F8C0680168405CD4E9C0
:1007500001219047206A401C2062281EA5F1010556
:10076000DCDC07E0D4E9012118F8010B9047206A8E
:10077000401C2062381EA7F10107F3DC2046AFF3CE
:100780000080032011B041E6074B70B50D467B4455
:1007900000F05BF80446284600F01CF910B14FF059
:1007A000FF3070BD204670BD032A0000004870472E
:1007B0002002002030B5B0F10A024FEA900E71F12C
:1007C00000034EEA817EB0EB0E0061EB91014FEA2F
:1007D000101E4EEA017E10EB0E0041EB11114FEAA4
:1007E000102E4EEA016E10EB0E0041EB11214FEA84
:1007F000104E4EEA014E10EB0E0041EB1141401835
:1008000041F100014FEAD00040EA41704FEAD101C6
:1008100010EB80054FEA810444EA907444EB010434
:100820006D1944EB0404521BA3414FF0000348BF71
:100830000A3200D530BD401C41F1000130BD00003E
:1008400001694A1C02610878704700B58FB0CDE994
:1008500001310021059105497944CDE90310114684
:100860006846FFF7D1FC0FB000BD0000E5FFFFFFB9
:100870002DE9F0411F46044603260168072A01F4CA
:10088000006004DB08B116A505E016A503E008B179
:1008900015A500E015A521F010002060A069C01E7C
:1008A000A0610FB1401EA0612046AFF300804FB1A0
:1008B000D4E9012138469047206A401C2062C01CC0
:1008C000206206E0206AFAE7D4E9012115F8010B5D
:1008D0009047761EF8D22046AFF30080BDE8F08145
:1008E0004E414E006E616E00494E4600696E6600D4
:1008F0002DE9F047814616468AB0354878440DC840
:100900008DE80D0032487844801C03AC0DC884E8A3
:100910000D0041F69B300844372190FBF1F290FB2B
:10092000F1F5A5F1800501FB12041B3C02D56442E0
:10093000012000E00020DFF898A080460027FA445C
:10094000AAF1BE0A0EE0E0070AD03246684607EB7D
:10095000470101230AEB810100F04DFF8DE80700FC
:1009600064107F1C002CEED1194F7F44AE3F19E07C
:10097000E80715D007EB04100DF1180A90E80E00F7
:100980008AE80E00C068F04201D1981908903246FA
:10099000012306A903A800F02EFF03AB83E807009C
:1009A0006D10641C002DE3D14FF0010332466946FF
:1009B000B8F1000F03A802D000F008FF01E000F03A
:1009C0001AFFC9E90001C9F808200AB0BDE8F0879C
:1009D00098300000007B00F08000704710B542485E
:1009E0005421FFF798FC41485421FFF794FC4048FC
:1009F0005421FFF790FC3F493B483C4A3F4B08607D
:100A00003D490A603A491960531C0365481C10654A
:100A1000012008653B48344A39A1784400F022F9A6
:100A200020B9384878440A3800F0C1F937482F4ACD
:100A300035A1784400F016F920B9344878440A38D2
:100A400000F0B5F932482A4A2FA1784400F00AF99B
:100A500020B92F4878440A3800F0A9F940232248E9
:100A6000DC000021224600F0D9F820B12548784466
:100A7000543800F09CF91D4822464023002100F024
:100A8000CDF820B121487844543800F090F9184846
:100A900022461023002100F0C1F8002806D01C488F
:100AA0007844BDE81040563800F081B910BD1048B8
:100AB00070B5006D20F001040B4800F049F90B48B7
:100AC00000F046F90A4800F043F909E0206D20F0F3
:100AD0000105204600F03CF9204600F078F82C464D
:100AE000002CF3D170BD000004010020580100204B
:100AF000AC010020280000202C0000203000002045
:100B000072000000922F0000770000007E2F00008E
:100B10006A2F00000EB5CDE9000100F01FFB029026
:100B200069460120ABBE0EBD08B5694600900220A3
:100B3000ABBE08BD1FB58DE8070069460520ABBEFA
:100B400004B010BD1FB58DE80F0069460620ABBE8E
:100B5000F6E708B5694600900920ABBE08BD1CB594
:100B6000CDE9000169460A20ABBE1CBD704708B53F
:100B7000694600900C20ABBE08BD000000487047DD
:100B8000000200207546FFF7F9FFAE4605006946F2
:100B9000534620F00700854618B020B5FFF716FB36
:100BA000BDE820404FF000064FF000074FF000086E
:100BB0004FF0000B21F00701AC46ACE8C009ACE8EF
:100BC000C009ACE8C009ACE8C0098D46704770B5F3
:100BD0000446051F00F034F90068002C14BF446877
:100BE00070BD002C18BFAC423CBF20466468F8D3EF
:100BF00001680A18AA4218BF456003D12A68054651
:100C00001144016028684119A1421CBF6C6070BD8D
:100C10006168696021680844286070BD70B5C46867
:100C2000A50713D0650211D4B2F5807F09D0B2F5C3
:100C3000007F06D0B2F5806F08D1012300F12401B6
:100C400006E05D1E6FF07F46B54201D3012070BD06
:100C50000161C361416024F470611143C1600020EF
:100C600070BD00002DE9F0410C46074616461046BF
:100C700000F06EF82078611C61280AD0722802D03A
:100C800077283CD102E00125002405E00225042458
:100C900002E0082448F2020511F8010B2B2806D0C7
:100CA000622809D011F8010C74280AD00BE045F035
:100CB000030544F00204EFE745F0040544F00104A5
:100CC000EAE744F0100438462146FFF723FF411CB1
:100CD00015D00021316171604FF40071F560F16150
:100CE0007061200704D530460222002100F022F96D
:100CF000306D40F0010030653046BDE8F0810020E5
:100D0000FBE72DE9F0410D460646104C206DC1076A
:100D100004D0410804D020F00104F7E722460EE099
:100D2000542000F0D8F807000ED0206D47F00101E4
:100D30000843542120653846FFF7EDFA3A46294624
:100D40003046BDE8F0418DE70020D6E704010020E1
:100D50002DE9F04704464FF000094FF0FF37C56812
:100D6000D4E90486A80707D0204600F093F930465E
:100D7000FFF7DAFE002802DA3846BDE8F0872805DA
:100D800002D54046FFF723FF4C212046FFF7C3FA68
:100D9000206D20F0010020654846EEE710B50446BE
:100DA000AFF300802046BDE81040FFF7FBB910B557
:100DB00000F0BAF9BDE8104000F0B0B94FF0013CC6
:100DC00050F8042B51F8043B9A4221D1A2EB0C03BA
:100DD000934313EACC1317D150F8042B51F8043B7A
:100DE0009A4215D1A2EB0C03934313EACC130BD117
:100DF00050F8042B51F8043B9A4209D1A2EB0C03A2
:100E0000934313EACC13DBD04FF00000704700BFD0
:100E1000D01A01BAB1FA81F101F0180122FA01F0F9
:100E2000CB40C1F12001DBB2C0B2C01A2CFA01F3F1
:100E3000D11A914311EAC311E6D1704770470000FF
:100E4000004870470802002070477047704770479D
:100E500038B504460A4600206946AFF300800028F2
:100E600008BF38BD02460099204600F0A4F90120D1
:100E700038BD012000F0F3B9F8B5AFF300800546A6
:100E800000200C46102000BF0646A819A0420DD92C
:100E9000324669460020AFF30080070008BF00F02B
:100EA000DEF90098A04218BF0546C419FFF7C8FF35
:100EB00005600746F01D20F007004619284600F09F
:100EC00073F9B44208BFF8BDA21B31463868BDE8CB
:100ED000F84000F070B970B50646FFF7B1FF05683D
:100EE00006F10B0020F00704B4429CBF002070BD47
:100EF0002B466A68BAB11068A04210D304F1080109
:100F000088423CBF5068586007D35168101941604F
:100F10001168091B016058601460101D70BD1346F4
:100F20005268002AE7D121462846FFF791FF0028A2
:100F3000DED170BD2DE9F041044616460D464769E5
:100F4000007B80072ED03846FFF703FE50BB3EB330
:100F5000012E02D0022E25D104E0204600F045F9F2
:100F600005441DE03846FFF702FEE168002841F025
:100F70001001E16005DA204600F058F80120BDE8D4
:100F8000F081C9030BD56268E16A914200D811462D
:100F9000A26911442269891A814200DD084605448C
:100FA000002D01DA0220EAE7E16A6068E268814226
:100FB00006D29103E06203D522F4003141F0100221
:100FC000A6690027AE4213DCE16A814201D90B46D3
:100FD00000E0034603EB060C2369ACEB030CAC45C5
:100FE00006DD814201D98C4600E084469C4505D14E
:100FF000A760276042F02000A5620DE0AD1BE66906
:10100000AE1B8142A66000D90846C01A281A20608B
:101010005819606022F0200003490840E060002079
:1010200084F84870ABE70000BFCFD7FFC16821F458
:10103000001141F08001C1600021816001607047B2
:101040002DE9F047814614460E464FF0FF383248EE
:10105000D5685769054209D03846A169FFF77FFD79
:10106000002811DB2C48C0430540E5602B46324682
:1010700049463846FFF75EFDA16920F00042B21AEA
:1010800011440028A16103D02046FFF7CFFF40465E
:10109000BDE8F08770B504460569C06A616888429A
:1010A00000D80846E16821F42011E160C90312D597
:1010B000A84208D02246411B2846FFF7C1FF10B1C5
:1010C0004FF0FF3070BD0020E562C4E90150E068D8
:1010D00020F48030E060002070BD10B50446C06888
:1010E00020F02000E060A16AA06988420DD020466F
:1010F000FFF7D0FFE06820F4405040F01000E060BF
:10110000A06AA0612069E062606044F24001E0688A
:101110008843E06010BD000010000200002801D0EC
:1011200000F03CB87047000010B5014602A000F086
:101130007DF8012010BD00005349475254524544E8
:101140003A2052656469726563743A2063616E2760
:1011500074206F70656E3A200000000010B5431CCB
:1011600002E010F8011B71B18107FAD14FF0013292
:1011700002C88C1A8C4314EAC211F9D0C01A0A06AC
:1011800003D0C01E10BDC01A10BD0A0401D0801EBD
:1011900010BD0902FCD0401E10BD000001491820FE
:1011A000ABBEFEE72600020000210160C0E901108D
:1011B000704710207047034640688C46002818BFCF
:1011C00088423CBF03464068F8D3186818448842F8
:1011D00007D00CF1030020F00700001D411A521A3D
:1011E0000146081D0A60FFF7F2BC10B50146C2684F
:1011F000900703D0900607D5886A0AE000F03EF811
:1012000001210160881E10BD8B69486818440B6974
:10121000C01A91F848301BB191F84910401A10BD1E
:101220001103FCD50028FADD401E10BD70B505463F
:101230000C460A2000E06D1C00F018F835B1287843
:101240000028F8D102E0641C00F010F814B12078F6
:101250000028F8D1BDE870400A2000F007B810B5AA
:1012600000F010F8BDE81040FFF758BF08B5694618
:101270008DF800000320ABBE08BD00000048704799
:101280000002002010B5012805D0002103A0FFF7BF
:10129000CDFF012010BD09A1F8E7000053494752D6
:1012A000544D454D3A204F7574206F662068656136
:1012B00070206D656D6F7279000000003A204865FE
:1012C0006170206D656D6F727920636F72727570D9
:1012D000746564005FEA400C08BF91F0000F4FEAAC
:1012E0008C234FEAC12243EA51514FEA1C5018BFE8
:1012F00000F5F0404FEA300018BF41F000415FEACE
:101300006C5C00F02980BCF1FF3F08BF40F08040DA
:101310007047130C06BF12044FF0100C4FF0000C76
:10132000130E04BF12020CF1080C130F04BF1201BC
:101330000CF1040C930F04BF92000CF1020CD30FBC
:1013400004BF52000CF1010C11464FF00002A0F155
:101350001F00A0EB0C00704711F0004F08BF704752
:1013600031F000413FF4D5AF0B0C06BF09044FF03C
:10137000100C4FF0000C0B0E04BF09020CF1080C0E
:101380000B0F04BF09010CF1040C8B0F04BF890083
:101390000CF1020CCB0F04BF49000CF1010CCCF195
:1013A0002003A0EB0C0022FA03F302FA0CF241EA4C
:1013B000030100F10100704720F07F4C80EA030038
:1013C00023F07F47ACEB070303F57C5300F00040AC
:1013D00003F1FF032DE980494FEA154B09B44FEAA9
:1013E000144325EA0B4E24EA03480FF2042606EBC9
:1013F000132749083E785FEA320203FB0667C7F508
:10140000000707FB06F64FEA54374FEAD64606F1C7
:10141000020607FB066CCCF1005C4FEA1C472CEA85
:10142000074C07FB06F40CFB06F504EB15464FEAE8
:10143000961634BF00204FF000404FEAD13706FB2C
:1014400007FC4FEA1C4C0CFB0BF7D21B03FB0CF701
:1014500061EB07010CFB0EF7B0EB074072EB174294
:101460000CFB08F734BFA2EB0742B2EB074261EB7B
:1014700017414FEA0C444FEA910706FB07FC4FEA7D
:101480001C4C0CFB0BF7B0EBC74072EB573203FB65
:101490000CF734BFA2EBC742B2EBC74261EB573146
:1014A0000CFB0EF7B0EBC70072EB57720CFB08F7A2
:1014B00034BFA2EBC702B2EBC70261EB5771039FC7
:1014C0004FEA816141EA921104EBCC044FEAD13733
:1014D0004FEA826206FB07FC42EA90124FEA806004
:1014E0004FEA1C4C0CFB0BF7D21B03FB0CF761EB18
:1014F00007010CFB0EF7B0EB074072EB17420CFB39
:1015000008F734BFA2EB0742B2EB074261EB174189
:101510004FEA8C554FEA910704EB9C2406FB07FC2D
:101520004FEA1C4C0CFB0BF7B0EBC74072EB573289
:1015300003FB0CF734BFA2EBC742B2EBC74261EB2F
:1015400057310CFB0EF7B0EBC70072EB57720CFB78
:1015500008F734BFA2EBC702B2EBC70261EB5771C9
:1015600015EB4C254FEA816141EA92114FEA826204
:101570004FEAD13742EA901206FB07FC44F100041F
:101580004FEA80604FEA1C4C0CFB0BF7D21B03FBAD
:101590000CF761EB07010CFB0EF7B0EB074072EBA9
:1015A00017420CFB08F734BFA2EB0742B2EB07422D
:1015B00061EB174115EB1C154FEA813141EA92416D
:1015C0004FEA823242EA90424FEA80304FEA0C768C
:1015D00044F1000448EA03434EEA0B484FF0000E82
:1015E000B2EB080C71EB030724BF624639464EEBA1
:1015F0000E0E4FF0000B0018524149414BEB0B0B04
:10160000B2EB080C71EB03077BF1000B24BF6246C1
:1016100039464EEB0E0E4FF0000B00185241494177
:101620004BEB0B0BB2EB080C71EB03077BF1000BE0
:1016300024BF624639464EEB0E0E51EA020718BF30
:1016400046F0010616EB0E7655F1000254F100014A
:1016500003D5BDE88901BDE80088BDE88901BDE882
:101660000048B619524141EB0101A3F10103704753
:1016700080807F7E7D7C7B7A7978777676757473CF
:10168000727171706F6E6E6D6C6C6B6A6A6968688E
:10169000676666656464636362616160605F5F5E24
:1016A0005E5D5D5C5C5B5B5A5A595958585757569A
:1016B00056555555545453535252525151505050FF
:1016C0004F4F4F4E4E4D4D4D4C4C4C4B4B4B4A4A51
:1016D0004A49494948484847474747464646454595
:1016E00045444444444343434342424242414141CE
:1016F000002B9C4630D477002BD01CB54FEA37071F
:1017000003B44FF010004FF01001BAF1000F06D0F3
:10171000BCF1000FDCBF40F0080040F008014FF0C2
:1017200000000FBCBDE810400BF1010BBBF1010F35
:1017300008BF5FEA170722BF12F1010211F1010190
:101740004FF0004143F1000300F0004043EA000085
:101750007047F9D35708D0E746EA064613F1400F21
:101760004FEA16461FDD13F1200FDFBF16430A466E
:10177000002120335B42BED0C3F1200746EA064673
:1017800002FA07F74FEA164646EA0706C3F12007B2
:1017900022FA03F201FA07F721FA03F14FF00003EE
:1017A00042EA0702A7E746EA020646EA06464FEA89
:1017B000164646EA0106BCBF46EA0646360C4FF01E
:1017C00000034FF000024FF0000194E72DE9804C38
:1017D0009A46934670B491E8380007C831EA400C45
:1017E00048BF34EA430C03D5FFF7E6FDFFF780FF5F
:1017F000F0BCBDE8008C2DE9804C9A46934670B44D
:1018000091E8380007C810F0804F08BF13F0804FF0
:1018100003D100F005F8FFF76BFFF0BCBDE8008CCA
:1018200020F07F4780EA030023F07F4C07EB0C0396
:10183000A3F57C5300F00040A3F1FE0392F0000FEB
:1018400000F0B38095F0000F00F077802DE901499A
:101850004FEA11404FEA144621EA004800FB06FC1B
:1018600024EA064708FB06F607FB08F800FB07F723
:1018700018EB06484CEB164C4FEA124B18EB074896
:101880004FEA15464CEB174022EA0B4E0BFB06FCC9
:1018900025EA06470EFB06F607FB0EFE0BFB07F7D5
:1018A0001EEB064E4CEB164C4FF000061EEB074E9F
:1018B0004CEB174B18EB0B0840F1000018EB0E0B2C
:1018C00058EB000840F100008F1A4FF000013CBFB8
:1018D000C943661B14BFB5EB040C00213CBFC943D0
:1018E000F61B4FEA17444EEA8E0E27EA04454FEAEC
:1018F0001C4704FB07622CEA074C05FB07F70CFBAF
:1019000005F604FB0CFC16EB074642EB174216EB00
:101910000C4642EB1C421BEB060658EB020241410F
:1019200046EA9E0601D5BDE80189B619524141EB50
:101930000101A3F10103BDE801894FEA14454FEA13
:10194000114724EA054621EA074C05FB07F406FB8C
:1019500007F70CFB06F105FB0CFC11EB074144EB10
:1019600017444FEA124711EB0C4144EB1C4422EAA6
:10197000074C05FB07F206FB07F70CFB06F605FB19
:101980000CFC16EB074642EB174216EB0C4642EBFB
:101990001C456A1854F1000148BF7047B6195241FE
:1019A00041EB0101A3F10103704795F0000F37D01F
:1019B0004FEA11424FEA144721EA024624EA074C53
:1019C00002FB07F106FB07F70CFB06F402FB0CFC1D
:1019D00014EB074441EB17414FEA154714EB0C4455
:1019E00041EB1C4125EA074C02FB07F506FB07F714
:1019F0000CFB06F602FB0CFC16EB074645EB174505
:101A000016EB0C4645EB1C42121951F1000148BF80
:101A10007047B619524141EB0101A3F10103704730
:101A20004FEA14454FEA114724EA054621EA074CDC
:101A300005FB07F106FB07F70CFB06F24FF000066B
:101A400005FB0CFC12EB074241EB174112EB0C4279
:101A500051EB1C4148BF7047921841EB0101A3F1C3
:101A600001037047FEE700000F48006881060F4839
:101A700000680ED5C2B20E4B0E480D2A0AD00A2AB3
:101A800008D041883F2904D241880B44491C418039
:101A90001A70704741880029FBD042880021995470
:101AA00001210170704700000038014004380140F6
:101AB000C40000201400002030B585B02248002466
:101AC0000294816941F004018161816901F004019E
:101AD0000491816941F48041816180691B4D00F46A
:101AE000804004904FF40070009002200190032089
:101AF00003906946284600F027F92815CDE900042F
:101B000069462846029400F01FF900F041FB4FF4AB
:101B1000E13100F56140B0FBF1F00D4980B20860A1
:101B20000B4808300460001D0460091D42F22C00BF
:101B3000086000220121252000F062FA252000F033
:101B400051FA05B030BD000000100240000801400D
:101B50000838014010B5044602E0641C01F0C4FBE3
:101B600020780028F9D110BD30B5364991B00878F9
:101B7000002857D04A8800206B46334C03E0255C90
:101B80001D54401C80B29042F9D3002098544880E4
:101B90000870184601F091FB04460078002841D0F7
:101BA0003F283DD029A1204601F090FB18B101F05B
:101BB00041F828A043E02BA1204601F087FB18B193
:101BC00001F03EF829A03AE02CA1204601F07EFB6E
:101BD00008B12C4833E0207866280BD0462809D07D
:101BE000642812D0442810D072281DD052281BD04F
:101BF00025A024E010A9601C01F042FB18B1109848
:101C000001F038F860B129A019E010A9601C01F0BA
:101C1000F1FA18B1109801F025F808B12CA00EE0E7
:101C200001F038FA11B030BD10A9601C01F028FB9A
:101C300020B1109800F094FF2FA000E035A0FFF72E
:101C400089FFEFE714000020C40000207374617264
:101C50007400000050574D20737461727465640DF8
:101C60000A00000073746F700000000050574D2090
:101C700073746F707065640D0A00000068656C70A5
:101C800000000000BC3900084552523A20756E6BC6
:101C90006E6F776E20636F6D6D616E642C2074794A
:101CA0007065202768656C70270D0A004552523A0E
:101CB0002075736167653A2066203C687A3E202073
:101CC00028652E672E20662031303030290D0A001D
:101CD0004552523A2075736167653A2064203C7022
:101CE000657263656E743E202028652E672E206421
:101CF000203330290D0A000063617074757265200D
:101D00007072657363616C6572207570646174656F
:101D1000640D0A004552523A2075736167653A2096
:101D200072203C7073633E202028303D37324D488E
:101D30007A2C2037313D314D487A290D0A000000B8
:101D4000704772B6FEE700002DE9F84FDFF8B89152
:101D50000024A9F1040B23460F2709F1040AABF173
:101D6000040EC9E00125A5402A40AA427DD1674E54
:101D7000D1F804C0ACEB0608B44532D014DCBCF199
:101D8000030F3AD009DCBCF1000F2AD0BCF1010FDF
:101D90001CD0BCF1020F31D11DE0BCF1110F17D0E6
:101DA000BCF1120F2AD119E0B8F5881F19D006DC52
:101DB000B8F5803F15D0B8F5801F1FD111E0B8F5F8
:101DC000001F0ED0B8F5041F18D10AE0CB6815E04B
:101DD000CB681B1D12E0CB6808330FE0CB680C33D7
:101DE0000CE08B682BB1012B4FF0080303D0456149
:101DF00004E0042302E0056100E00023FF2A01D88B
:101E0000064601E000F104064FEA840501D9A5F178
:101E10002005D6F8008007FA05FC28EA0C0803FA2A
:101E200005F548EA0508C6F800804D68ED0062D562
:101E3000374DAE6946F00106AE61AD6924F0030688
:101E400005F001050095334D06EB050CDCF8085054
:101E5000A607360F07FA06F825EA0805DFF8B88066
:101E6000404503D14FF0000817E044E0DFF8AC80B4
:101E7000404502D14FF001080FE0DFF8A480404553
:101E800002D14FF0020808E0DFF89880404502D107
:101E90004FF0030801E04FF0040808FA06F848EA9A
:101EA0000508CCF808804D68D9F80060ED024D4671
:101EB00001D5164300E096432E604D68DAF80060C5
:101EC000AD02554601D5164300E096432E604D689D
:101ED000DBF80060AD035D4601D5164300E0964394
:101EE0002E604D68DEF80060ED03754601D516439F
:101EF00000E096432E60641C0D682A46E5407FF49E
:101F000031AFBDE8F88F0000080401400000111057
:101F1000001002400000014000080140000C014098
:101F20000010014000140140014880687047000023
:101F300018000020024881680278114481607047CF
:101F400018000020074810B5016841F01001016039
:101F5000032000F075F80F2000F006F800F024F8D8
:101F6000002010BD0020024070B50D4D04464FF416
:101F70007A712878B1FBF0F00A490968B1FBF0F0FA
:101F800000F0CCFA48B9102C07D200222146501E8E
:101F900000F036F800206C6070BD012070BD0000BC
:101FA00018000020240000200C4808B5816941F089
:101FB00001018161816901F001010091C16941F074
:101FC0008051C161C06900F08050009004484168B0
:101FD00021F0E06141F00071416008BD0010024055
:101FE00000000140002809DB00F01F0201219140A0
:101FF0004009800000F1E020C0F8001170470000A7
:10200000F0B40E4B1B680C46C3F30223C3F1070563
:10201000042D00D90425191D072901D2002300E051
:10202000DB1E012606FA05F1491E214099409E401B
:10203000761E16403143F0BC01F014B80CED00E000
:10204000064900F0070208684FF6FF03184040EA0F
:102050000220034A10430860704700000CED00E0C6
:102060000000FA052DE9F0470F46050061D0434E08
:10207000306800F00700B84209D2306820F007004D
:1020800038433060306800F00700B84251D128680A
:102090003B4C810712D5400703D5606840F4E060EF
:1020A00060602878000703D5606840F46050606085
:1020B0006068A96820F0F000084360602878C007D5
:1020C00028D06868012810D02168022810D089071C
:1020D00000292EDA616821F0030101436160FFF7F6
:1020E00023FF804641F288390DE021688903EFE73C
:1020F0008901EDE7FFF718FFA0EB0801494502D978
:102100000320BDE8F0876068696800F00C00B0EB60
:10211000810FEFD1306800F00700B8420BD930686A
:1021200020F0070038433060306800F00700B84204
:1021300001D00120E5E72878400705D56068E96807
:1021400020F4E060084360602878000706D56068E6
:10215000296920F4605040EAC100606000F028F86E
:102160006168084AC1F30311515CC8400649086020
:1021700006480068FFF7F8FE0020C2E70020024092
:102180000010024004390008240000201C00002038
:102190000448054900684968044AC1F3C221515CFA
:1021A000C840704724000020001002401439000885
:1021B0000E4A51680E4801F00C03042B11D0082B75
:1021C0000FD10C48C1F38343C903C05C0AD55168E1
:1021D000084AC1F34041921E515C054A5043B0FB8E
:1021E000F1F0704704494843704700000010024076
:1021F00000127A00F438000800093D002DE9F84F7C
:10220000040070D02078C04DC00749D06868C0F382
:102210008100012807D06868C0F38100022809D135
:102220006868C00306D52868800339D5606800282F
:10223000E7D035E06068B0F5803F0BD010B1B0F565
:10224000A02F11D0286820F480302860286820F45E
:10225000802002E0286840F480302860606890B1F7
:10226000FFF762FE06460AE0286840F480202860F6
:10227000F0E700BFFFF758FE801B642873D828687A
:102280008003F7D50CE0FFF74FFE064605E000BFE0
:10229000FFF74AFE801B6428F0D828688003F7D433
:1022A00020789A4E80074FF001094FF0000839D589
:1022B000686810F00C0F07D06868C0F3810002282E
:1022C00009D16868C00306D42868800714D520693E
:1022D000012808D110E02069B0B1C6F80090FFF7DE
:1022E00023FE074605E00AE1FFF71EFEC01B022899
:1022F000C4D828688007F7D52868616920F0F800FD
:1023000040EAC10028600DE0C6F80080FFF70CFE2F
:10231000074604E0FFF708FEC01B022823D8286800
:102320008007F7D4207800072CD57948A169D9B166
:10233000C0F80090FFF7F8FD074604E0FFF7F4FD52
:10234000C01B02280FD8686A8007F7D571484FF480
:10235000FA510068B0FBF1F0009000BF0098411EF8
:102360000091FAD20EE080E0C0F80080FFF7DCFDBB
:10237000074604E0FFF7D8FDC01B022875D8686A3D
:102380008007F7D42078400760D5E8690027C000AF
:1023900008D4E86940F08050E861E869012700F05E
:1023A000805000905C480168C90513D401688346D9
:1023B00041F480710160FFF7B7FD824606E000BF7F
:1023C000FFF7B2FDA0EB0A0064284ED8DBF800004E
:1023D000C005F5D5E06801280AD008B1052813D05A
:1023E000286A20F001002862286A20F0040002E038
:1023F000286A40F001002862E06841F2883B98B109
:10240000FFF792FD82460BE0286A40F00400286244
:10241000EEE700BFFFF788FDA0EB0A0159455AD847
:10242000286A8007F6D50CE0FFF77EFD824605E0BE
:10243000FFF77AFDA0EB0A0159454CD8286A8007BE
:10244000F6D41FB1E86920F08050E861E06988B3F4
:102450006968C1F38101022944D00228C6F860806E
:1024600004D0FFF761FD044638E034E0FFF75CFD7F
:10247000074604E0FFF758FDC01B02282BD8286848
:102480008001F7D4206AB0F5803F05D16868A16863
:1024900020F4003008436860D4E908010843696803
:1024A00021F4741108436860C6F86090FFF73CFDA2
:1024B000044606E025E000BFFFF736FD001B0228BA
:1024C00009D828688001F7D51BE000BFFFF72CFD75
:1024D000001B022802D90320BDE8F88F286880017C
:1024E000F4D40EE00128F7D06868226A00F4803145
:1024F000914204D1616A00F47010884201D0012039
:10250000EAE70020E8E70000001002400000424235
:1025100080044242240000200070004010B5401E9C
:10252000B0F1807F01D3012010BD4FF0E024606145
:102530000F21601700F096FD0020A06107202061A8
:10254000002010BD2DE9F041054690F83C00002622
:102550000C46012810D0012085F83C0072B1042AF5
:102560001CD0082A2CD00C2A50D00126002085F837
:102570003C003046BDE8F0810220FBE7D4E90012C0
:10258000E368286800F010FD2868816921F00C01DB
:10259000816128688169A26811430FE0D4E90012C3
:1025A000E368286800F02CFD2868816921F4406107
:1025B000816128688169A26841EA02218161D5E7C9
:1025C0002868D4E9002C277B036A016A21F4807112
:1025D0000162C16923F4007321F0030141EA0C0197
:1025E00021F0F00C39074FF400774CEA116107EA4B
:1025F00002221A43C16102622868C16921F00C01FC
:10260000C1612868C169A26811432BE02868D4E938
:102610000021E768036AD0F820C02CF4805CC0F881
:1026200020C0D0F81CC023F400532CF4407C4CEAAA
:10263000012121F4704C4FF6FF7101EA07314FF48C
:10264000005741EA0C0107EA02321A43C1610262F3
:102650002868C16921F44061C1612868C169A26824
:1026600041EA0221C16181E710B5040003D094F86A
:102670003D0010B107E0012010BD002084F83C00AF
:10268000204600F01EF8022084F83D00211D20683D
:1026900000F09EFB012084F8460084F83E0084F898
:1026A0003F0084F8400084F8410084F8420084F838
:1026B000430084F8440084F8450084F83D0000207D
:1026C00010BD704710B5044651B104290DD008293A
:1026D00010D094F8410094F84520012811D10EE063
:1026E00094F83E0094F84220F7E794F83F0094F8FD
:1026F0004320F2E794F8400094F84420EDE7012AE3
:1027000001D0012010BD022019B3042926D00829C8
:1027100029D084F8410084F845000122206800F0A7
:1027200093FB13492068884208D0B0F1804F05D050
:102730001049884202D01049884204D1816801F0D2
:102740000701062903D0016841F001010160002062
:1027500010BD84F83E0084F84200DEE784F83F00B4
:1027600084F84300D9E784F8400084F84400D4E7B3
:10277000002C0140000400400008004070B50446F1
:1027800090F83C0000260D4601280FD0012084F867
:102790003C006AB1042A1DD0082A2FD00C2A3FD051
:1027A0000126002084F83C00304670BD022070BD38
:1027B000206800F057FB2068816941F008018161C1
:1027C0002068816921F004018161206881692A699A
:1027D000114311E0206800F06DFB2068816941F42D
:1027E000006181612068816921F4806181612068D4
:1027F00081692A6941EA02218161D2E7206800F0FB
:1028000085FB2068C16941F00801C1612068C16988
:1028100021F00401C1612068C1692A69114311E0F6
:10282000206800F09FFB2068C16941F40061C1612C
:102830002068C16921F48061C1612068C1692A6989
:1028400041EA0221C161ACE710B5040003D094F85D
:102850003D0010B107E0012010BD002084F83C00CD
:10286000204600F01EF8022084F83D00211D20685B
:1028700000F0AEFA012084F8460084F83E0084F8A7
:102880003F0084F8400084F8410084F8420084F856
:10289000430084F8440084F8450084F83D0000209B
:1028A00010BD704710B50446022249B104290ED06C
:1028B000082913D094F84100012816D0012010BD3A
:1028C00094F83E000128F9D184F83E200FE094F8F6
:1028D0003F000128F2D184F83F2008E094F840003E
:1028E0000128EBD184F8402001E084F84120012246
:1028F000206800F0A9FA0F492068884203D1426C91
:1029000042F4004242642068884208D0B0F1804F0F
:1029100005D00949884202D00849884204D181681B
:1029200001F00701062903D0016841F001010160AF
:10293000002010BD002C01400004004000080040B1
:1029400030B504460D460068002200F07DFA174BB2
:1029500041F2111120688A10984209D1036A0B4292
:1029600006D1036A134203D1436C23F4004343644A
:102970002068036A0B4206D1016A114203D1016843
:1029800021F00101016001203DB1042D08D0082D86
:1029900009D084F84100002030BD84F83E00FAE7F9
:1029A00084F83F00F7E784F84000F4E7002C01408A
:1029B000FEE700000D4808B5816941F01001816112
:1029C000816901F010010091816941F0200181616C
:1029D000816901F020010091816941F00401816168
:1029E000806900F00400009008BD00000010024063
:1029F000FEE7FEE72DE9F0470F46234916468046DD
:102A00000C68081D0568096800684FF0FF328C42A9
:102A100038D1854236D1A4B3A54200D925461B48FA
:102A20001B490068401CB1FBF0F000F00BFE814632
:102A3000B8F1000F08D0204600F004FE01464846D9
:102A400000F006FDC8F800006FB1204600F0FAFD66
:102A50000446284600F0F6FD0E4900F007FE214628
:102A600000F0F6FC38604EB1284600F0EBFD0A4954
:102A700000F0FCFD494600F0EBFC30600020BDE8B2
:102A8000F087FFE71046FAE734040040100000200A
:102A900000A24A040000C8420024744930B589B03D
:102AA00000242A4805940794009401940294039406
:102AB000816941F004018161816901F0040108919B
:102AC000C16941F00201C161C069022500F0020044
:102AD00008904020049004A906951D48FFF734F99A
:102AE0001D481C4901601D490968C0E901144FF6E1
:102AF000FF71C0E903148461FFF7B6FD08B1FFF769
:102B000020F90120CDE900400294002269461248D4
:102B10000394FFF717FD08B1FFF713F9009504229E
:102B200069460D480195FFF70DFD08B1FFF709F95A
:102B3000084954200831086000210748FFF7C2FD0A
:102B400004210548FFF7BEFD09B030BD001002406A
:102B500000080140000400407C000020100000201C
:102B6000B0F5803F04D203490860034980B2086091
:102B700070470000100000202804004010B58CB001
:102B800000241C2168460994FDF7C5FB244881698F
:102B900041F004018161816901F004010B918169B7
:102BA00041F400618161806907A900F400600B9025
:102BB0004FF4807007900220089003200A90194873
:102BC000FFF7C2F81948184901604721C0E901140C
:102BD00040F2E731C0E903148021C0E90541FFF765
:102BE00033FE08B1FFF7ADF8602000904FF4FA70A3
:102BF000CDE90104039404940594002269460B482E
:102C00000694FFF7BBFD08B1FFF79BF808494FF4A6
:102C10007A7000F035F800F00DF80CB010BD00002F
:102C20000010024000080140002C01403400002048
:102C30000000484200210148FFF734BE3400002064
:102C400000210148FFF77CBE340000200148C06825
:102C500070470000000000200148806870470000B5
:102C60000000002001460248006800F009B800009A
:102C7000000000200149496800F002B8000000206F
:102C80002DE9F84F5FEA00080D464FF0FF3061D0A4
:102C9000314E15F1FF4F01D3002502E0B54200DDB2
:102CA0003546DFF8B890B9FBF8F4002C52D04FF459
:102CB000803A4FF6FF7B544501D800270EE004EB25
:102CC0000B0100EB1147574544D27A1CB9FBF2F3D4
:102CD000B3FBF8F4002C3DD054453BD8204600F01F
:102CE000B1FC2946009000F0C1FC1B4900F0B0FB8C
:102CF0004FF07C5100F04AFB00F06CFC0646A0420D
:102D000000D92646564500D35E46154801688F62B5
:102D10000168641ECC62C46001684E6300680121D2
:102D20004161104C7F1CB9FBF7F0C4E90085009DA0
:102D300000F088FC294600F08BFBA0603046009D27
:102D400000F080FC044900F091FC294600F080FB73
:102D5000E0600020BDE8F88F0000C84200A24A04ED
:102D6000340000200000002070477047FFF7E2B8F1
:102D700030B58FB028216846FDF7CDFA14210AA896
:102D8000FDF7C9FA01210804CDE9001000240294DE
:102D900002250491CDE907504FF4E01009906846F0
:102DA000FFF72CFA08B172B6FEE70F20CDE90A054D
:102DB0004FF48060CDE90C4002210AA80E94FFF781
:102DC00051F9002801D072B6FEE70FB030BD704750
:102DD000F0B50268194B1A4C1A4D4FF080479842D3
:102DE00005D0B84203D0A04201D0A84203D122F0BE
:102DF00070064A683243984205D0B84203D0A042D8
:102E000001D0A84203D122F44074CA6822434C691D
:102E100022F08002224302608A68C2620A688262EB
:102E2000984201D109690163012141610169C90722
:102E300003D0016921F001010161F0BD002C0140C6
:102E4000000400400008004010B501F01F030121FC
:102E5000046A99408C430462016A9A4011430162FA
:102E600010BD000030B5036A026A22F0010202625E
:102E70004268846924F073050C682C4323F0020532
:102E80008B682B430A4DA8420BD123F00805CB6871
:102E900022F440722B434D6923F0040315438A69E1
:102EA0002A434260846149684163036230BD000087
:102EB000002C014030B5026A036A23F0100303625C
:102EC000436884690D6824F4E64444EA05248D6867
:102ED00022F0200242EA05120B4DA8420ED1CD6825
:102EE00022F0800242EA05124D6923F4406343EA6E
:102EF00085038D6922F0400243EA850343608461C3
:102F000049688163026230BD002C014030B5036A1C
:102F1000026A22F4807202624268C46923F4007378
:102F200024F073050C682C438D6843EA05230C4D8F
:102F3000A8420ED1CD6823F4006343EA05234D690E
:102F400022F4405242EA05128D6923F4806342EA7A
:102F500005124260C4614968C163036230BD00006C
:102F6000002C014030B5046A026A22F480520262E9
:102F70004268C3690D6823F4E64343EA05238D687C
:102F800024F4005444EA0534064DA84204D14D69A6
:102F900022F4804242EA85124260C36149680164BA
:102FA000046230BD002C014070B5056A046A24F04B
:102FB0000104046284690F4EB04208D0B0F1804F22
:102FC00005D00D4EB04202D00C4EB04203D124F0D9
:102FD0000304144301E044F001041A0724F0F00450
:102FE00044EA126225F00A0301F00A0119438261E2
:102FF000016270BD002C0140000400400008004048
:1030000030B5046A056A25F010050562856925F466
:10301000407545EA022222F470454FF6FF7202EA3B
:10302000033224F0A0032A43A02404EA0111194327
:103030008261016230BDFEF717BDFEE7490050EA2C
:10304000C12018BF04204A0D18BF40F0010040F213
:10305000FF72B2EB515F08BF40F00200012808BFC9
:10306000052070470907090E002804DB00F1E02065
:1030700080F80014704700F00F0000F1E02080F8A5
:10308000141D704730380A2801D2012070470020F3
:10309000704700002DE9F0478AB0002006900790A5
:1030A000089008AA07A906A8FFF7A4FC002833D0B7
:1030B0005FF00006FFF7CAFD00F03CF904460D463C
:1030C000FFF7CAFD00F036F902460B4615A0CDE920
:1030D0000045FDF78DF80EB3089800F02BF98946EE
:1030E000069980468A46164800F0B2F900F022F9A7
:1030F00006460F46079800F01DF904460D46504657
:1031000000F018F98DE8F00302460B460DA0FDF71C
:103110006FF80AB0BDE8F0870126CBE714A0FEF7F0
:1031200019FDF6E75345543A20663D252E32664890
:103130007A20643D252E326625250D0A0000000008
:10314000002474494341503A20663D252E3266489A
:103150007A20643D252E3266252520543D252E32C9
:1031600066757320573D252E326675730D0A000073
:103170004341503A206E6F207369676E616C20285E
:10318000636865636B2050413620696E70757429E1
:103190000D0A000010B50446C0B200F0A5F82046A4
:1031A00010BD0000FEF7CEFEFFF7E2FDFFF702FCC8
:1031B000FFF7E4FCFFF772FCFEF77EFC03A0FEF7CE
:1031C000C9FC00BFFEF7D0FCFCE700000D0A505719
:1031D0004D2073636F70652062656E636820726551
:1031E0006164792E2054797065202768656C70279A
:1031F0002E0D0A002DE9F047002588461E4E2F4669
:1032000000F05BF80446007830380A2832D2DFF844
:103210006C902078303809280DD800F0FBF907466B
:103220004946284600F022FA394600F0AFF8012757
:103230000546641CEDE720782E2815D1B1460EE036
:1032400000F0E8F9314600F011FA294600F09EF846
:1032500005464946304600F009FA0646012714F8AB
:10326000010F30380928EBD927B10120C8F80050E8
:10327000BDE8F0870020FBE7CDCCCC3D000020412D
:1032800070B50D46002400F018F8017830390A298D
:1032900009D3002070BD00BF04EB840302EB43039D
:1032A000CC18401C01E06FF02F020178A1F130032F
:1032B000092BF1D901202C6070BD00E0401C017881
:1032C0002029FBD00929F9D07047000007E000BF92
:1032D00010F8013B491C934201D0002070470A7846
:1032E000002AF5D10120704703490A681206FCD56F
:1032F0000149091D086070470038014010B50029D8
:103300000AD00878002807D005487844FDF756FD14
:10331000002801D0002010BD0248784410BD0000F4
:10332000E2070000DA0700000808A0F500114FEAE4
:103330003101704743004FEAD30C4FEA3C0C434045
:103340001FBF40070CF1605113F0FE4F70471CF097
:10335000006F03D100200CF0004170470CF00043D7
:1033600043EA507010B540EACC0000F000FA00BF0C
:10337000000000924FEA0001FFF7D6BF4FF0004176
:103380004FF00000A1F500217047000090EA010F06
:1033900048BF81F0004100F13C82421A3CBF801AD4
:1033A00089184FEAD0524FF07F4C1CEA410FA2EB34
:1033B000D15318BF9CEA026F00F03B804FF0004CE5
:1033C0004CEA00204CEA012121FA03FC10EB0C0C22
:1033D0001ED202F1FF325FEA1C2040EBC25038BF20
:1033E00070471CF07F0F4FEA400C18BFBCF17F4FB5
:1033F00038BF7047C3F12003994008BF20F0010097
:10340000BCF17F4F38BF7047A0F1C04000F0F5B964
:103410004FEA3C00000A40EBC25028BF1CF0FF0FEF
:103420004FEA400CE6D018BFBCF17F4F38BF704761
:10343000EAE79CEA026F05D010EA5C0F08BF00F0D3
:103440000040704710B500F092F900BF64FBBE3E2B
:103450004FF47F0C1CEAD0121EBF1CEAD11392EA73
:103460000C0F93EA0C0F00F0858090EA010F48BF23
:1034700042F4807240F4000C41F400002CF07F41D3
:1034800020F07F4000B58142A2EB03020FF2081C3E
:10349000ACEB504EC0F100009EF800E04FEA4E0E3B
:1034A00000FB0EFC38BF49004FEA2C1C02F5FA0263
:1034B0000CFB0EF34FEACE1E4FEA112C4FEAC1214E
:1034C0000EEB635E42EB22420EFB0CFC4FEA1C53F8
:1034D00000FB03114FEA112C4FEA01310EFB0CFCEB
:1034E0004FEADC4C00FB0C11C14228BF09184CEB21
:1034F00003335DF804EB10EB410143EBC250B2F52E
:103500007C0F38BF704729D512F0F00F1CBF00F1B7
:10351000C04000F000407047008182838485868728
:1035200088898B8C8D8E8F919293959697999A9C82
:103530009D9FA0A2A3A5A7A8AAACAEB0B2B3B5B7F1
:10354000B9BCBEC0C2C5C7C9CCCED1D4D7D9DCDFC7
:10355000E2E6E9ECF0F3F7FAFE0000004FEA400C77
:103560000CF1807CBCF17E4F28BF7047B0F1C040A9
:1035700000F043B990EA010F0CEAD11348BF42F4BE
:103580008072624538BF634507D213F47F0F16D0AF
:1035900080EA010000F00040704710B500F0E7F845
:1035A000097EFC3E00F005B880EA010000F0004012
:1035B000704780EA010000F0004000F01EB912F4EC
:1035C0007F0F04BF0248704780EA010000F015B980
:1035D0000000C07FC10DD1F19E0206DB4FEA00233F
:1035E00043F0004323FA02F07047004207D54FEA48
:1035F0004001B1F1FE4F02D24FF00000704710B50C
:1036000000F0B5F849922480002070476FEA20004E
:103610007047000010F0004148BF4042B0FA80F30C
:1036200010FA03F2C3F19D030BD051EAC35101EB31
:103630001220530638BF704700F1010008BF20F088
:1036400001007047B0FA80F310FA03F2C3F19D0352
:103650000AD0D90501EB1220530638BF704700F19C
:10366000010008BF20F00100704700004FF47F0CFC
:103670001CEAD0121EBF1CEAD11392EA0C0F93EA87
:103680000C0F00F0478090EA010F48BF42F48072AF
:103690004FF0004C4CEA00204CEA012102EB0302FF
:1036A000A0FB0113A2F50002002918BF43F001039B
:1036B0005B0028BF4FEA330342EB22425FEA132C40
:1036C0004CEBC2502EBFBCEB436FB2F57C0F704782
:1036D0004FEA036CBCF1004F08BF20F00100B2F5C7
:1036E0007C0F38BF70470BD582F0FF0212F5803F88
:1036F000C8BF704700F1C040D8BF00F0004070471D
:1037000000F5000C5FEA4C0C48BF7047B0F1C040B8
:1037100000F073B890EA010F0CEAD11348BF42F4ED
:103720008072624538BF634504D280EA010000F030
:103730000040704710B500F01AF800BF8900013E44
:1037400000F007B800F009B85FEA410C5FEA1C6CB2
:1037500008D080EA010000F050B85FEA400C5FEA50
:103760001C6CF6D14FF00040A0F5800070470EF1C0
:10377000020E2EF0030E5EF8044B244204D44FEAEE
:103780004102B2F17F4F11D84FEA4003B3F17F4FAE
:103790000CD80ED14FEAD07CB2F17F4F0CEB4C0C21
:1037A0000CF1020C08BF4CEBD17C04E04FF0080C8C
:1037B00001E04FEAD17C0CEB4C0324FA03F404F053
:1037C0000704B4F1040C06D20EEB840CBDE81040E3
:1037D0004CF0010C6047DFE80CF0070802024FF0E4
:1037E0000040A0F5800010BD0846420018BFD2F18D
:1037F000807288BF00F0004010BDFF2141EAD05028
:10380000C005704790EA010F48BF81F000413FF5C5
:10381000C4AD421A04D882F00042A0EB0200114469
:103820004FEAD0524FF07F4C1CEA410FA2EBD1532C
:1038300018BF9CEA026F4AD04FF0004C4CEA0020BF
:103840004CEA012121FA03FCB0EB0C0C0FD412F06E
:10385000FE0F36D05FEA4C001DD5001240EBC2507F
:1038600038BF70471CF03F0F18BF70470BE0A2F144
:1038700001025FEA1C2040EBC25038BF70471CF0C9
:103880007F0F18BF7047C3F12003994014BF401E3B
:1038900020F00100704780084FEA122308BF7047EC
:1038A000B0FA80FCA2EB0C02CCF1280C60FA0CF010
:1038B00093EA122F04BF00EBC25070474FEAC37067
:1038C0007047130A5FEADC1008BF7047F6E79CEA0E
:1038D000026F04D010EA5C0F08BF0020704710B5DB
:1038E000FFF745FF40DFF63E81F000407047FCF7F0
:1038F00015BE010202030405060708090A0B0C0D98
:103900000E0F101000000000000000000102030470
:10391000060708090000000001020304024000003D
:10392000000000A00000000005400000000000C8EA
:10393000000000000C4000000000409C000000005F
:10394000194000000020BCBE000000003440000010
:10395000BFC91B8E00000004B5400000504BCFD003
:103960006607E2CF010000006C4100003E8251AAD0
:10397000DFEEA73401000000D9420000DCB5A0E270
:103980003A301F97FFFFFFFFB4450000FD25A0C898
:10399000E9A3C14FFFFFFFFFFF3F000000000080D1
:1039A00000000000FF3F0000000000800000000059
:1039B0003A7474003A7474003A747400636F6D6DF5
:1039C000616E64733A0D0A202066203C687A3E20BE
:1039D000202020207365742050574D206672657139
:1039E00075656E63792028652E672E20662031303C
:1039F0003030290D0A202064203C7063743E202062
:103A000020207365742050574D20647574792025EB
:103A10002020202028652E672E2064203330290D99
:103A20000A202072203C7073633E202020206361B6
:103A30007074757265207072657363616C65722055
:103A400028303D37324D487A2C2037313D314D48B2
:103A50007A290D0A2020737461727420202020209E
:103A60002073746172742050574D206F7574707597
:103A7000740D0A202073746F7020202020202020D5
:103A800073746F70202050574D206F75747075746B
:103A90000D0A20203F2020202020202020202070E0
:103AA00072696E7420534554207673204341500D43
:103AB0000A202068656C7020202020202020746857
:103AC0006973206C6973740D0A000000083B0008DC
:103AD0000000002034000000280100083C3B0008E2
:103AE000340000202C080000440100081C000000E5
:103AF00043000000F8FFFFFF0C0000000E00000074
:103B00000F0000002E000000E80300000000484203
:103B100000007A4400004842470000000000000016
:103B200001000000100000000000000000127A00F8
:0C3B300000000000000000000000000089
:04000005080000ED02
:00000001FF
